:100000000C942A000C94CE020C9447000C944700E8
:100010000C9447000C9447000C9447000C94470044
:100020000C9447000C9447000C9447000C94470034
:100030000C9447000C9447000C9447000C94470024
:100040000C9447000C9447000C9447000C94470014
:100050000C94470011241FBECFE5D8E0DEBFCDBF12
:1000600011E0A0E6B0E0E0E0F6E002C005900D92FD
:10007000AE30B107D9F721E0AEE0B1E001C01D928A
:10008000A231B207E1F70E949C020C94FE020C948C
:100090000000672B09F09FC0009711F4D8980895CD
:1000A0008130910511F4D99808958230910511F4A9
:1000B000DA9808958330910511F4DB98089584301F
:1000C000910511F4DC9808958530910511F4DD98BF
:1000D00008958630910511F4DE98089587309105D2
:1000E00011F4DF9808958A30910511F4C0980895AD
:1000F0008B30910511F4C19808958C30910511F45D
:10010000C29808958D30910511F4C39808958E30EA
:10011000910511F4C49808958F30910511F4C59894
:1001200008958031910511F4C698089581319105A3
:1001300011F4C79808958431910511F4A898089591
:100140008531910511F4A99808958631910511F42E
:10015000AA9808958731910511F4AB9808958831D4
:10016000910511F4AC9808958931910511F4AD9879
:1001700008958A31910511F4AE9808958B31910557
:1001800011F4AF9808958E31910511F49098089567
:100190008F31910511F4919808958032910511F4F1
:1001A000929808958132910511F4939808958232BE
:1001B000910511F4949808958332910511F495985E
:1001C00008958432910511F496980895859709F061
:1001D0009FC097980895009711F4D89A0895813098
:1001E000910511F4D99A08958230910511F4DA9AA3
:1001F00008958330910511F4DB9A089584309105B8
:1002000011F4DC9A08958530910511F4DD9A089572
:100210008630910511F4DE9A08958730910511F426
:10022000DF9A08958A30910511F4C09A08958B30B1
:10023000910511F4C19A08958C30910511F4C29A78
:1002400008958D30910511F4C39A08958E3091056B
:1002500011F4C49A08958F30910511F4C59A089548
:100260008031910511F4C69A08958131910511F4F8
:10027000C79A08958431910511F4A89A089585319B
:10028000910511F4A99A08958631910511F4AA9A5D
:1002900008958731910511F4AB9A0895883191053D
:1002A00011F4AC9A08958931910511F4AD9A08952D
:1002B0008A31910511F4AE9A08958B31910511F4AC
:1002C000AF9A08958E31910511F4909A08958F3167
:1002D000910511F4919A08958032910511F4929A42
:1002E00008958132910511F4939A0895823291050F
:1002F00011F4949A08958332910511F4959A089512
:100300008432910511F4969A0895859709F4979A85
:100310000895CF93C82F80FF07C061E070E082E2AC
:1003200090E00E94490006C060E070E082E290E048
:100330000E944900C1FF07C061E070E083E290E0E5
:100340000E94490006C060E070E083E290E00E94F5
:100350004900C2FF07C061E070E084E290E00E94C3
:10036000490006C060E070E084E290E00E9449002D
:10037000C3FF07C061E070E085E290E00E944900A1
:1003800006C060E070E085E290E00E944900CF91F5
:100390000895CF93C82F60E070E08AE190E00E945A
:1003A00049008C2F0E94890161E070E08BE190E0B0
:1003B0000E94490089EF90E00197F1F700C000002A
:1003C00060E070E08BE190E00E94490089EF90E0EE
:1003D0000197F1F700C00000CF91089580E00E94DE
:1003E000C90181E00E94C901089580E00E9489014D
:1003F00087E893E10197F1F700C0000083E00E94D5
:10040000C90181EE94E00197F1F700C0000083E09C
:100410000E94C9018DEB9AE00197F1F700C000003E
:1004200083E00E94C90182E00E94C90182E00E942B
:10043000C90188E00E94C90180E00E94C9018CE0E6
:100440000E94C90180E00E94C90186E00E94C901A2
:100450000895CF93C82F61E070E08AE190E00E9498
:1004600049008C2F82958F700E94890161E070E0B5
:100470008BE190E00E94490089EF90E00197F1F74D
:1004800000C0000060E070E08BE190E00E94490055
:1004900089EF90E00197F1F700C000008C2F8F707A
:1004A0000E94890161E070E08BE190E00E944900C8
:1004B00089EF90E00197F1F700C0000060E070E084
:1004C0008BE190E00E94490089EF90E00197F1F7FD
:1004D00000C00000CF910895CF93DF93EC01888195
:1004E000882331F021960E94290289918111FBCF46
:1004F000DF91CF9108958FEF8ABB84B3836084BB73
:100500001BBA0895929A93982FE38DE093E02150BF
:1005100080409040E1F700C0000092980895939ABF
:1005200092982FE38DE093E0215080409040E1F7D6
:1005300000C00000939808958BEF81BB8FEF84BBC0
:1005400017BA8ABB8AB3837F8ABB12BA1BBA15BAA1
:1005500083ED90E30197F1F700C000008BB7806452
:100560008BBF85B7816085BF1FBC0E94F5010E94CB
:100570007B029FE72AE186E0915020408040E1F72E
:1005800000C0000078940E94EE0183EE90E00E948B
:100590006C020E9482020E948F02FFCF1F920F9274
:1005A0000FB60F9211248F939F9380910E0190911B
:1005B0000F01019769F41EBC8CB59DB59093110194
:1005C000809310011DBC1CBC10920F0110920E01F3
:1005D00080910E0190910F01892B49F48EB58160B5
:1005E0008EBD81E090E090930F0180930E019F916A
:1005F0008F910F900FBE0F901F901895F894FFCF1A
:10060000796F757220526573756C74203A2D2000D5
:10061000436C6F7365206C65667420657965004373
:100620006C6F736520726967687420657965005620
:100630006973696F6E207465737420310053656C43
:10064000656374206F7074696F6E00436F727265BA
:1006500063742E2E0057726F6E672E2E00596F75C1
:100660007220766973696F6E2073636F7265002DF7
:1006700031002D3200566973696F6E207465737492
:100680002032002A2A2A4B4B2A2A2A00362F3630BB
:1006900000362F333600362F323400362F313800F3
:0E06A000362F313200362F3900362F3600004B
:00000001FF
