:100000000C942A000C94DC040C9447000C944700D8
:100010000C9447000C9447000C9447000C94470044
:100020000C9447000C9447000C9447000C94470034
:100030000C9447000C9447000C9447000C94470024
:100040000C9447000C9447000C9447000C94470014
:100050000C94470011241FBECFE5D8E0DEBFCDBF12
:1000600011E0A0E6B0E0E0EFFFE002C005900D92E5
:10007000AA30B107D9F721E0AAE0B1E001C01D9292
:10008000AE30B207E1F70E948C040C94F6070C9492
:1000900000008FE088BB40E050E060E170E0CB0101
:1000A000042E02C0880F991F0A94E2F787BB20E054
:1000B00030E0000086B390E0022E02C0959587954F
:1000C0000A94E2F780FD0BC0220F331F220F331F6B
:1000D000205A3F4FF901E40FF51F808108952F5FEB
:1000E0003F4F2430310529F74F5F5F4F44305105B2
:1000F000B1F68EE40895672B09F09FC0009711F4C4
:10010000D89808958130910511F4D99808958230D6
:10011000910511F4DA9808958330910511F4DB9874
:1001200008958430910511F4DC9808958530910587
:1001300011F4DD9808958630910511F4DE98089544
:100140008730910511F4DF9808958A30910511F4F4
:10015000C09808958B30910511F4C19808958C30A2
:10016000910511F4C29808958D30910511F4C3984A
:1001700008958E30910511F4C49808958F3091053B
:1001800011F4C59808958031910511F4C698089529
:100190008131910511F4C79808958431910511F4C6
:1001A000A89808958531910511F4A998089586318C
:1001B000910511F4AA9808958731910511F4AB982F
:1001C00008958831910511F4AC980895893191050D
:1001D00011F4AD9808958A31910511F4AE980895FF
:1001E0008B31910511F4AF9808958E31910511F47A
:1001F000909808958F31910511F491980895803267
:10020000910511F4929808958132910511F4939813
:1002100008958232910511F49498089583329105DE
:1002200011F4959808958432910511F496980895E3
:10023000859709F09FC097980895009711F4D89A70
:1002400008958130910511F4D99A0895823091056D
:1002500011F4DA9A08958330910511F4DB9A089528
:100260008430910511F4DC9A08958530910511F4DC
:10027000DD9A08958630910511F4DE9A089587304D
:10028000910511F4DF9A08958A30910511F4C09A0E
:1002900008958B30910511F4C19A08958C30910521
:1002A00011F4C29A08958D30910511F4C39A0895FE
:1002B0008E30910511F4C49A08958F30910511F490
:1002C000C59A08958031910511F4C69A0895813137
:1002D000910511F4C79A08958431910511F4A89AF3
:1002E00008958531910511F4A99A089586319105F3
:1002F00011F4AA9A08958731910511F4AB9A0895E3
:100300008831910511F4AC9A08958931910511F461
:10031000AD9A08958A31910511F4AE9A08958B3102
:10032000910511F4AF9A08958E31910511F4909AC8
:1003300008958F31910511F4919A089580329105B5
:1003400011F4929A08958132910511F4939A0895C7
:100350008232910511F4949A08958332910511F433
:10036000959A08958432910511F4969A0895859787
:1003700009F4979A0895CF93C82F80FF07C061E0D2
:1003800070E082E290E00E947B0006C060E070E0D6
:1003900082E290E00E947B00C1FF07C061E070E054
:1003A00083E290E00E947B0006C060E070E083E2A0
:1003B00090E00E947B00C2FF07C061E070E084E231
:1003C00090E00E947B0006C060E070E084E290E074
:1003D0000E947B00C3FF07C061E070E085E290E00F
:1003E0000E947B0006C060E070E085E290E00E9421
:1003F0007B00CF910895CF93C82F60E070E08AE131
:1004000090E00E947B008C2F0E94BB0161E070E0B5
:100410008BE190E00E947B008FEC97E00197F1F771
:1004200000C0000060E070E08BE190E00E947B0083
:100430008FEC97E00197F1F700C00000CF9108958D
:1004400080E00E94FB0181E00E94FB01089580E0B2
:100450000E94BB018FE39CE90197F1F700C0000007
:1004600083E00E94FB018FE097E20197F1F700C063
:10047000000083E00E94FB018FEE95E50197F1F704
:1004800000C0000083E00E94FB0182E00E94FB01AB
:1004900082E00E94FB0188E00E94FB0180E00E9454
:1004A000FB018CE00E94FB0180E00E94FB0186E0E2
:1004B0000E94FB010895CF93C82F61E070E08AE1AC
:1004C00090E00E947B008C2F82958F700E94BB0170
:1004D00061E070E08BE190E00E947B008FEC97E0A0
:1004E0000197F1F700C0000060E070E08BE190E060
:1004F0000E947B008FEC97E00197F1F700C00000AD
:100500008C2F8F700E94BB0161E070E08BE190E066
:100510000E947B008FEC97E00197F1F700C000008C
:1005200060E070E08BE190E00E947B008FEC97E050
:100530000197F1F700C00000CF910895CF93DF93AA
:10054000EC018881882331F021960E945B02899119
:100550008111FBCFDF91CF910895DC9ADC9808954B
:10056000D99A81E0982F9A95F1F7D9988A95F1F761
:100570000895CF93DF93D82FC8E0DD2314F4D89AE1
:1005800001C0D8980E94AD02DD0FC150B1F70E94A2
:10059000B002DF91CF910895CF93DF93EC010E94D9
:1005A0002002CE010E949E02DF91CF91089580E04B
:1005B0000E94B90280E00E94B90280E00E94B90264
:1005C00080E00E94B90208951F93CF93DF93C62F56
:1005D000D72F182F892F0E94B902812F0E94B902AC
:1005E0008D2F0E94B9028C2F0E94B902DF91CF910A
:1005F0001F9108950E9449008C36E1F38E34D1F3A7
:1006000008954F925F926F927F928F929F92AF92D6
:10061000BF92CF92DF92EF92FF920F931F93CF93EF
:10062000DF93CDB7DEB72A970FB6F894DEBF0FBEC3
:10063000CDBF0E94D7020F2EF0E8EF2EF0E0FF2E84
:10064000F02D0F2EF5E98F2EF0E09F2EF02D412C8E
:10065000512C3201689441F8C12CD12CA12CB12C21
:1006600001E010E0C301B2010E94E4028DE990E0D4
:100670000E94CC020E94FA02F70191917F01891336
:1006800005C089EA90E00E94CC0207C081EB90E0AF
:100690000E94CC02FFEFCF1ADF0AC601880F991F14
:1006A00080179107A4F18BEB90E00E94CC022FEF12
:1006B00087EA91E6215080409040E1F700C00000B9
:1006C000000F111FF801E259FF4F81818F93808144
:1006D0008F9385EC90E09F938F938E010F5F1F4F58
:1006E0001F930F930E940C05C8010E94CC02EFEFEC
:1006F000F7EA21E6E150F0402040E1F700C00000B9
:100700000F900F900F900F900F900F9020C0C50189
:1007100002960817190724F08FEFA81AB80A06C026
:100720000F5F1F4FC12CD12CA12CB12C440C551C98
:10073000661C771C9FEFE9E6F8E19150E040F0403D
:10074000E1F700C00000E814F90409F08BCF2A9605
:100750000FB6F894DEBF0FBECDBFDF91CF911F91D2
:100760000F91FF90EF90DF90CF90BF90AF909F9050
:100770008F907F906F905F904F900895CF92DF920F
:10078000EF92FF92CF93DF938EEC90E00E94CC0229
:100790002FEF83ED90E3215080409040E1F700C0BF
:1007A00000000E94D702C0E0D0E0C12CD12C76011D
:1007B0006894F1F8C530D10579F4CC0CDD1CEE1C41
:1007C000FF1CC701B6010E94E4028DE990E00E947F
:1007D000CC020E94FA022CC0C701B6010E94E402BA
:1007E0008DE990E00E94CC020E94FA029E012B7FCC
:1007F000232BF1F4803371F489EA90E00E94CC025B
:100800002FEF83ED90E3215080409040E1F700C04E
:1008100000002BC081EB90E00E94CC022FEF83ED13
:1008200090E3215080409040E1F700C000001DC0DF
:10083000813371F489EA90E00E94CC022FEF83EDBE
:1008400090E3215080409040E1F700C000000DC0CF
:1008500081EB90E00E94CC022FEF83ED90E32150DA
:1008600080409040E1F700C00000CC0CDD1CEE1C85
:10087000FF1C2FEF83ED90E3215080409040E1F783
:1008800000C000002196C630D10509F093CFDF915A
:10089000CF91FF90EF90DF90CF9008958CE090E0A3
:1008A000AA9AE7E4FDE03197F1F700C00000AA98AA
:1008B000E7EFFEE83197F1F700C00000019781F7FC
:1008C0000895DE9ADF98CB9B04C00E944E04CB991A
:1008D000FCCF8BB38F738BBB08958CE090E0AA9A0A
:1008E000E7E0F7E03197F1F700C00000AA98E7E3EE
:1008F000F5E93197F1F700C00000019781F70895FD
:10090000DE98DF9ACA9B04C00E946D04CA99FCCF8E
:100910008BB38F738BBB08958FEF81BB84BB90EF3C
:1009200097BB8ABB8AB38ABB8AB38ABB12BA1BBA8B
:100930008BB38C608BBB15BA8BB780648BBF85B7CC
:10094000816085BF1FBC0E9427022FEF89E698E1D6
:10095000215080409040E1F700C000000E94D70283
:100960000E94200289ED90E00E949E022FEF83ED0D
:1009700090E3215080409040E1F700C000000E94C9
:1009800061040E9401030E9480042FEF83ED90E335
:10099000215080409040E1F700C000000E94BE035B
:1009A0002FEF83ED90E3215080409040E1F700C0AD
:1009B00000000E946104E5CF1F920F920FB60F92C4
:1009C00011248F939F9380910A0190910B010197BD
:1009D00069F41EBC8CB59DB590930D0180930C01FC
:1009E0001DBC1CBC10920B0110920A0180910A01DF
:1009F00090910B01892B49F48EB581608EBD81E009
:100A000090E090930B0180930A019F918F910F903A
:100A10000FBE0F901F901895AEE0B0E0E2E1F5E058
:100A20000C94CD070D891E8986E08C831A83098377
:100A30008FEF9FE79E838D83AE01475E5F4F6F8987
:100A4000788DCE0101960E942E05EF81F885E00F8A
:100A5000F11F10822E96E4E00C94E907ABE0B0E0C1
:100A6000E4E3F5E00C94BF076C017B018A01FC0113
:100A700017821682838181FFCCC1CE0101963C0191
:100A8000F6019381F70193FD859193FF81917F0199
:100A9000882309F4BAC1853239F493FD859193FF17
:100AA00081917F01853229F4B60190E00E942507EB
:100AB000E7CF912C212C312CFFE1F315D8F08B32AC
:100AC00079F038F4803279F08332A1F4232D20615B
:100AD0001DC08D3261F0803369F4232D216016C072
:100AE000832D8260382EE32DE4603E2E2AC0F32D44
:100AF000F8601DC037FC2DC020ED280F2A3040F0D3
:100B00008E32B9F436FC81C1232D2064322E19C0F7
:100B100036FE06C08AE0989E200D1124922E11C048
:100B2000EAE02E9E200D1124222EF32DF0623F2E9E
:100B300008C08C3621F4832D8068382E02C0883698
:100B400041F4F70193FD859193FF81917F0181111C
:100B5000B3CF982F9F7D9554933028F40C5F1F4F8F
:100B60009FE399830DC0833631F0833771F083356D
:100B700009F059C021C0F801808189830E5F1F4FA1
:100B800088248394912C530113C02801F2E04F0E66
:100B9000511CF801A080B18036FE03C0692D70E0C1
:100BA00002C06FEF7FEFC5010E941A074C0182015E
:100BB000F32DFF773F2E16C0280122E0420E511C74
:100BC000F801A080B18036FE03C0692D70E002C03C
:100BD0006FEF7FEFC5010E940F074C01F32DF06806
:100BE0003F2E820133FC1BC0822D90E088169906AF
:100BF000B0F4B60180E290E00E9425072A94F4CF79
:100C0000F50137FC859137FE81915F01B60190E0D7
:100C10000E94250721102A9421E0821A910881144C
:100C2000910471F7E8C0843611F0893641F5F80176
:100C300037FE07C060817181828193810C5F1F4FF5
:100C400008C060817181072E000C880B990B0E5F24
:100C50001F4FF32DFF763F2E97FF09C0909580958B
:100C6000709561957F4F8F4F9F4FF0683F2E2AE020
:100C700030E0A3010E946107882E861845C08537A1
:100C800031F4232D2F7EB22E2AE030E025C0932DA3
:100C9000997FB92E8F36C1F018F4883579F0B5C038
:100CA000803719F0883721F0B0C0E92FE061BE2EFF
:100CB000B4FE0DC0FB2DF460BF2E09C034FE0AC087
:100CC000292F2660B22E06C028E030E005C020E1C2
:100CD00030E002C020E132E0F801B7FE07C06081D9
:100CE0007181828193810C5F1F4F06C06081718189
:100CF00080E090E00E5F1F4FA3010E946107882EE5
:100D00008618FB2DFF773F2E36FE0DC0232D2E7F3C
:100D1000A22E891458F434FE0BC032FC09C0832D76
:100D20008E7EA82E05C0B82CA32C03C0B82C01C001
:100D3000B92CA4FE0FC0FE01E80DF11D80818033A7
:100D400021F49A2D997EA92E09C0A2FE06C0B39463
:100D5000B39404C08A2D867809F0B394A3FC11C023
:100D6000A0FE06C0B21488F4280C922C9B180EC06A
:100D7000B21460F4B60180E290E00E942507B394BB
:100D8000F7CFB21418F42B1802C0982C212CA4FE13
:100D900010C0B60180E390E00E942507A2FE17C0B4
:100DA000A1FC03C088E790E002C088E590E0B601AE
:100DB0000CC08A2D867859F0A1FE02C08BE201C0DA
:100DC00080E2A7FC8DE2B60190E00E94250789141D
:100DD00038F4B60180E390E00E9425079A94F7CF9B
:100DE0008A94F301E80DF11D8081B60190E00E9424
:100DF00025078110F5CF222009F442CEB60180E20A
:100E000090E00E9425072A94F6CFF601868197810B
:100E100002C08FEF9FEF2B96E2E10C94DB07FC0101
:100E20000590615070400110D8F7809590958E0F15
:100E30009F1F0895FC016150704001900110D8F788
:100E4000809590958E0F9F1F08950F931F93CF93BA
:100E5000DF93FB01238121FD03C08FEF9FEF2CC0A7
:100E600022FF16C0468157812481358142175307DE
:100E700044F4A081B1819D012F5F3F4F31832083D6
:100E80008C93268137812F5F3F4F3783268314C091
:100E90008B01EC01FB010084F185E02D0995892B84
:100EA000E1F6D80116968D919C91179701961796A9
:100EB0009C938E931697CE01DF91CF911F910F9146
:100EC0000895FA01AA27283051F1203181F1E894E0
:100ED0006F936E7F6E5F7F4F8F4F9F4FAF4FB1E02D
:100EE0003ED0B4E03CD0670F781F891F9A1FA11D28
:100EF000680F791F8A1F911DA11D6A0F711D811D29
:100F0000911DA11D20D009F468943F912AE0269FED
:100F100011243019305D3193DEF6CF010895462F4C
:100F20004770405D4193B3E00FD0C9F7F6CF462F2D
:100F30004F70405D4A3318F0495D31FD4052419396
:100F400002D0A9F7EACFB4E0A69597958795779553
:100F50006795BA95C9F700976105710508959B01DA
:100F6000AC010A2E06945795479537952795BA9563
:100F7000C9F7620F731F841F951FA01D08952F923C
:100F80003F924F925F926F927F928F929F92AF9219
:100F9000BF92CF92DF92EF92FF920F931F93CF9366
:100FA000DF93CDB7DEB7CA1BDB0B0FB6F894DEBFFD
:100FB0000FBECDBF09942A88398848885F846E8423
:100FC0007D848C849B84AA84B984C884DF80EE806D
:100FD000FD800C811B81AA81B981CE0FD11D0FB676
:100FE000F894DEBF0FBECDBFED010895F894FFCF9A
:100FF0003132334134353642373839432A3023448D
:10100000DF00E800ED00F200F700FC00010105013F
:101010003539343236303338393530363234383683
:1010200033303935320000000000000000456E7496
:1010300065722076616C756500436F7272656374CA
:1010400000496E636F727265637400546573742037
:10105000446F6E650053636F72653D257300436F87
:101060006C6F7220746573740068656C6C6F00300F
:10107000202D204661696C00362F363000362F3324
:101080003600362F323400362F313800362F3132C9
:0A10900000362F3900362F3600001D
:00000001FF
